:040000008BEF00F092
:060008003E82E4EF0FF060
:100018003E80D8CFE2F0E8CFE3F0E0CFE4F0FACFCB
:10002800E5F0FBCFE6F0E9CFE7F0EACFE8F0E1CF83
:10003800E9F0E2CFEAF0D9CFEBF0DACFECF0F3CF8A
:10004800EDF0F4CFEEF0F6CFEFF0F7CFF0F0F8CF19
:10005800F1F0F5CFF2F03EC0F3F03FC0F4F040C04D
:10006800F5F041C0F6F00E0137BB78EC18F00E0140
:1000780037B90FEC1CF00E0137B7E5EC17F00E019D
:1000880037B5B3EC1BF00E0136BF52EC17F00E017A
:1000980036BD57EC1BF00E0137B3BFEC16F00E015E
:1000A80037B1FBEC1AF00E0136BB9BEC19F00E01D0
:1000B80036B96BEC1CF0F6C041F0F5C040F0F4C066
:1000C8003FF0F3C03EF0F2C0F5FFF1C0F8FFF0C01A
:1000D800F7FFEFC0F6FFEEC0F4FFEDC0F3FFECC092
:1000E800DAFFEBC0D9FFEAC0E2FFE9C0E1FFE8C0F0
:1000F800EAFFE7C0E9FFE6C0FBFFE5C0FAFFE4C09E
:10010800E0FFE3C0E8FFE2C0D8FF3E9010002CEF0C
:1001180016F084C1ECF10101EC3B0F0EEC170F0E49
:10012800EC1783C1EDF10F0EED17ED51050DAB0E78
:10013800EE6F000EEF6FF350EE27F450EF23EC5103
:10014800EE25D96E000EEF21DA6EDF50F06FF0A1C8
:1001580003D00E01BB8102D00E01BB910101F0A3B7
:1001680004D00E01BC81010E03D00E01BC91000E1B
:100178000101026FF0A503D00E01BA8102D00E0171
:10018800BA910101F0A702D0878001D08790F0A929
:1001980005D0A1AF02D07F8001D07F90F0AB0AD00C
:1001A8000001E18F8FB003D00101A69F05D00101A6
:1001B800A68F02D00001E19F84C1ECF10F0E01016E
:1001C800EC1783C1EDF10F0EED17ED51050D920EF1
:1001D800EE6F000EEF6FF350EE27F450EF23EC5163
:1001E800EE25D96E000EEF21DA6EDF50F06FF0A128
:1001F80003D00E01BB8302D00E01BB930101F0A313
:1002080004D00E01BC83010E03D00E01BC93000E76
:100218000101056FF0A503D00E01BA8302D00E01CB
:10022800BA930101F0A702D0878201D08792F0A982
:1002380005D0A1AD02D07F8201D07F92F0AB0AD069
:100248000001E18D8FB203D00101A69D05D0010107
:10025800A68D02D00001E19D85C1ECF10101EC3BC6
:100268000F0EEC170F0EEC1783C1EDF10F0EED1703
:10027800ED51050D790EEE6F000EEF6FF350EE277E
:10028800F450EF23EC51EE25D96E000EEF21DA6E13
:10029800DF50F06FF0A103D00E01BB8502D00E0134
:1002A800BB950101F0A304D00E01BC85010E03D05B
:1002B8000E01BC95000E0101086FF0A503D00E01D8
:1002C800BA8502D00E01BA950101F0A702D0878441
:1002D80001D08794F0A905D0A1AB02D07F8401D0CA
:1002E8007F94F0AB0AD00001E18B8FB403D00101F9
:1002F800A69B05D00101A68B02D00001E19B85C118
:10030800ECF10F0E0101EC1783C1EDF10F0EED17A3
:10031800ED51050D600EEE6F000EEF6FF350EE27F6
:10032800F450EF23EC51EE25D96E000EEF21DA6E72
:10033800DF50F06FF0A103D00E01BB8702D00E0191
:10034800BB970101F0A304D00E01BC87010E03D0B6
:100358000E01BC97000E01010B6FF0A503D00E0132
:10036800BA8702D00E01BA970101F0A702D087869A
:1003780001D08796F0A905D0A1A902D07F8601D027
:100388007F96F0AB0AD00001E1898FB603D0010156
:10039800A69905D00101A68902D00001E19987C17B
:1003A800ECF10101EC3B0F0EEC170F0EEC1786C1B8
:1003B800EDF10F0EED17ED51050DAB0EEE6F000EC2
:1003C800EF6FF350EE27F450EF23EC51EE25D96E82
:1003D800000EEF21DA6EDF50F06FF0A103D00E01AE
:1003E800918102D00E0191910101F0A304D00E0178
:1003F8009281010E03D00E019291000E01010E6F41
:10040800F0A503D00E01908102D00E019091010158
:10041800F0A702D0818001D08190F0A905D0A1A7D2
:1004280002D0798001D07990F0AB0AD00001E18741
:1004380089B003D00101A69705D00101A68702D093
:100448000001E19787C1ECF10F0E0101EC1786C19D
:10045800EDF10F0EED17ED51050D920EEE6F000E3A
:10046800EF6FF350EE27F450EF23EC51EE25D96EE1
:10047800000EEF21DA6EDF50F06FF0A103D00E010D
:10048800918302D00E0191930101F0A304D00E01D3
:100498009283010E03D00E019293000E0101116F99
:1004A800F0A503D00E01908302D00E0190930101B4
:1004B800F0A702D0818201D08192F0A905D0A1A530
:1004C80002D0798201D07992F0AB0AD00001E1859F
:1004D80089B203D00101A69505D00101A68502D0F5
:1004E8000001E19588C1ECF10101EC3B0F0EEC171E
:1004F8000F0EEC1786C1EDF10F0EED17ED51050D3E
:10050800790EEE6F000EEF6FF350EE27F450EF23E5
:10051800EC51EE25D96E000EEF21DA6EDF50F06F48
:10052800F0A103D00E01918502D00E019195010131
:10053800F0A304D00E019285010E03D00E0192950E
:10054800000E0101146FF0A503D00E01908502D0B2
:100558000E0190950101F0A702D0818401D0819409
:10056800F0A905D0A1A302D0798401D07994F0AB89
:100578000AD00001E18389B403D00101A69305D014
:100588000101A68302D00001E19388C1ECF10F0EAE
:100598000101EC1786C1EDF10F0EED17ED51050DB8
:1005A800600EEE6F000EEF6FF350EE27F450EF235E
:1005B800EC51EE25D96E000EEF21DA6EDF50F06FA8
:1005C800F0A103D00E01918702D00E01919701018D
:1005D800F0A304D00E019287010E03D00E0192976A
:1005E800000E0101176FF0A503D00E01908702D00D
:1005F8000E0190970101F0A702D0818601D0819663
:10060800F0A905D0A1A102D0798601D07996F0ABE6
:100618000AD00001E18189B603D00101A69105D075
:100628000101A68102D00001E1918AC1ECF101012A
:10063800EC3B0F0EEC170F0EEC1789C1EDF10F0E06
:10064800ED17ED51050DAB0EEE6F000EEF6FF35089
:10065800EE27F450EF23EC51EE25D96E000EEF2172
:10066800DA6EDF50F06FF0A103D00E01998102D04D
:100678000E0199910101F0A304D00E019A81010E97
:1006880003D00E019A91000E01011A6FF0A503D054
:100698000E01988102D00E0198910101F0A702D0B5
:1006A800828001D08290F0A905D0A2AF02D07A80D2
:1006B80001D07A90F0AB0AD00001E08F8AB003D065
:1006C8000101A79F05D00101A78F02D00001E09F7B
:1006D8008AC1ECF10F0E0101EC1789C1EDF10F0E83
:1006E800ED17ED51050D920EEE6F000EEF6FF35002
:1006F800EE27F450EF23EC51EE25D96E000EEF21D2
:10070800DA6EDF50F06FF0A103D00E01998302D0AA
:100718000E0199930101F0A304D00E019A83010EF2
:1007280003D00E019A93000E01011D6FF0A503D0AE
:100738000E01988302D00E0198930101F0A702D010
:10074800828201D08292F0A905D0A2AD02D07A822D
:1007580001D07A92F0AB0AD00001E08D8AB203D0C2
:100768000101A79D05D00101A78D02D00001E09DE0
:100778008BC1ECF10101EC3B0F0EEC170F0EEC17DF
:1007880089C1EDF10F0EED17ED51050D790EEE6FE4
:10079800000EEF6FF350EE27F450EF23EC51EE25E7
:1007A800D96E000EEF21DA6EDF50F06FF0A103D0A2
:1007B8000E01998502D00E0199950101F0A304D08C
:1007C8000E019A85010E03D00E019A95000E0101C3
:1007D800206FF0A503D00E01988502D00E019895E0
:1007E8000101F0A702D0828401D08294F0A905D03B
:1007F800A2AB02D07A8401D07A94F0AB0AD000017F
:10080800E08B8AB403D00101A79B05D00101A78B17
:1008180002D00001E09B8BC1ECF10F0E0101EC1737
:1008280089C1EDF10F0EED17ED51050D600EEE6F5C
:10083800000EEF6FF350EE27F450EF23EC51EE2546
:10084800D96E000EEF21DA6EDF50F06FF0A103D001
:100858000E01998702D00E0199970101F0A304D0E7
:100868000E019A87010E03D00E019A97000E01011E
:10087800236FF0A503D00E01988702D00E01989738
:100888000101F0A702D0828601D08296F0A905D096
:10089800A2A902D07A8601D07A96F0AB0AD00001DC
:1008A800E0898AB603D00101A79905D00101A7897B
:1008B80002D00001E0998DC1ECF10101EC3B0F0E73
:1008C800EC170F0EEC178CC1EDF10F0EED17ED5173
:1008D800050DAB0EEE6F000EEF6FF350EE27F450E0
:1008E800EF23EC51EE25D96E000EEF21DA6EDF50C2
:1008F800F06FF0A103D00E01918902D00E019199F9
:100908000101F0A304D00E019289010E03D00E015B
:100918009299000E0101266FF0A503D00E0190896F
:1009280002D00E0190990101F0A702D0818801D070
:100938008198F0A905D0A2A702D0798801D079982A
:10094800F0AB0AD00001E08789B803D00101A7976E
:1009580005D00101A78702D00001E0978DC1ECF115
:100968000F0E0101EC178CC1EDF10F0EED17ED51D3
:10097800050D920EEE6F000EEF6FF350EE27F45058
:10098800EF23EC51EE25D96E000EEF21DA6EDF5021
:10099800F06FF0A103D00E01918B02D00E01919B54
:1009A8000101F0A304D00E01928B010E03D00E01B9
:1009B800929B000E0101296FF0A503D00E01908BC8
:1009C80002D00E01909B0101F0A702D0818A01D0CC
:1009D800819AF0A905D0A2A502D0798A01D0799A86
:1009E800F0AB0AD00001E08589BA03D00101A795D0
:1009F80005D00101A78502D00001E0958EC1ECF178
:100A08000101EC3B0F0EEC170F0EEC178CC1EDF14A
:100A18000F0EED17ED51050D790EEE6F000EEF6F0D
:100A2800F350EE27F450EF23EC51EE25D96E000E6B
:100A3800EF21DA6EDF50F06FF0A103D00E01918D37
:100A480002D00E01919D0101F0A304D00E01928DF8
:100A5800010E03D00E01929D000E01012C6FF0A52E
:100A680003D00E01908D02D00E01909D0101F0A7D8
:100A780002D0818C01D0819CF0A905D0A2A302D01C
:100A8800798C01D0799CF0AB0AD00001E08389BC55
:100A980003D00101A79305D00101A78302D000016B
:100AA800E0938EC1ECF10F0E0101EC178CC1EDF152
:100AB8000F0EED17ED51050D600EEE6F000EEF6F86
:100AC800F350EE27F450EF23EC51EE25D96E000ECB
:100AD800EF21DA6EDF50F06FF0A103D00E01918F95
:100AE80002D00E01919F0101F0A304D00E01928F54
:100AF800010E03D00E01929F000E01012F6FF0A589
:100B080003D00E01908F02D00E01909F0101F0A733
:100B180002D0818E01D0819EF0A905D0A2A102D079
:100B2800798E01D0799EF0AB0AD00001E08189BEB0
:100B380003D00101A79105D00101A78102D00001CE
:100B4800E09190C1ECF10101EC3B0F0EEC170F0E98
:100B5800EC178FC1EDF10F0EED17ED51050DAB0E32
:100B6800EE6F000EEF6FF350EE27F450EF23EC51C9
:100B7800EE25D96E000EEF21DA6EDF50F06FF0A18E
:100B880003D00E01A68102D00E01A6910101F0A3A7
:100B980004D00E01A781010E03D00E01A791000E0B
:100BA8000101326FF0A503D00E01A58102D00E011C
:100BB800A5910101F0A702D0848001D08490F0A90A
:100BC80005D0A3AF02D07C8001D07C90F0AB0AD0D6
:100BD8000001DF8F8CB003D00101A89F05D001016F
:100BE800A88F02D00001DF9F90C1ECF10F0E010128
:100BF800EC178FC1EDF10F0EED17ED51050D920EAB
:100C0800EE6F000EEF6FF350EE27F450EF23EC5128
:100C1800EE25D96E000EEF21DA6EDF50F06FF0A1ED
:100C280003D00E01A68302D00E01A6930101F0A302
:100C380004D00E01A783010E03D00E01A793000E66
:100C48000101356FF0A503D00E01A58302D00E0176
:100C5800A5930101F0A702D0848201D08492F0A963
:100C680005D0A3AD02D07C8201D07C92F0AB0AD033
:100C78000001DF8D8CB203D00101A89D05D00101D0
:100C8800A88D02D00001DF9D91C1ECF10101EC3B80
:100C98000F0EEC170F0EEC178FC1EDF10F0EED17BD
:100CA800ED51050D790EEE6F000EEF6FF350EE2744
:100CB800F450EF23EC51EE25D96E000EEF21DA6ED9
:100CC800DF50F06FF0A103D00E01A68502D00E010F
:100CD800A6950101F0A306D00E01A785010E01011A
:100CE800386F04D0000E386F0E01A7950101F0A5EA
:100CF80003D00E01A58502D00E01A5950101F0A72C
:100D080002D0848401D08494F0A905D0A3AB02D08A
:100D18007C8401D07C94F0AB0AD00001DF8B8CB4CA
:100D280003D00101A89B05D00101A88B02D00001C6
:100D3800DF9B91C1ECF10F0E0101EC178FC1EDF1B2
:100D48000F0EED17ED51050D600EEE6F000EEF6FF3
:100D5800F350EE27F450EF23EC51EE25D96E000E38
:100D6800EF21DA6EDF50F06FF0A103D00E01A687F5
:100D780002D00E01A6970101F0A304D00E01A787A7
:100D8800010E03D00E01A797000E01013B6FF0A5DD
:100D980003D00E01A58702D00E01A5970101F0A787
:100DA80002D0848601D08496F0A905D0A3A902D0E8
:100DB8007C8601D07C96F0AB0AD00001DF898CB626
:100DC80003D00101A89905D00101A88902D000012A
:100DD800DF9993C1ECF10101EC3B0F0EEC170F0EFC
:100DE800EC1792C1EDF10F0EED17ED51050DAB0E9D
:100DF800EE6F000EEF6FF350EE27F450EF23EC5137
:100E0800EE25D96E000EEF21DA6EDF50F06FF0A1FB
:100E180003D00E01A68902D00E01A6990101F0A304
:100E280004D00E01A789010E03D00E01A799000E68
:100E380001013E6FF0A503D00E01A58902D00E0175
:100E4800A5990101F0A702D0848801D08498F0A95F
:100E580005D0A3A702D07C8801D07C98F0AB0AD03B
:100E68000001DF878CB803D00101A89705D00101E4
:100E7800A88702D00001DF9793C1ECF10F0E0101A2
:100E8800EC1792C1EDF10F0EED17ED51050D920E15
:100E9800EE6F000EEF6FF350EE27F450EF23EC5196
:100EA800EE25D96E000EEF21DA6EDF50F06FF0A15B
:100EB80003D00E01A68B02D00E01A69B0101F0A360
:100EC80004D00E01A78B010E03D00E01A79B000EC4
:100ED8000101416FF0A503D00E01A58B02D00E01D0
:100EE800A59B0101F0A702D0848A01D0849AF0A9B9
:100EF80005D0A3A502D07C8A01D07C9AF0AB0AD099
:100F08000001DF858CBA03D00101A89505D0010145
:100F1800A88502D00001DF9594C1ECF10101EC3BFA
:100F28000F0EEC170F0EEC1792C1EDF10F0EED1727
:100F3800ED51050D790EEE6F000EEF6FF350EE27B1
:100F4800F450EF23EC51EE25D96E000EEF21DA6E46
:100F5800DF50F06FF0A103D00E01A68D02D00E0174
:100F6800A69D0101F0A304D00E01A78D010E03D0A8
:100F78000E01A79D000E0101446FF0A503D00E01DC
:100F8800A58D02D00E01A59D0101F0A702D0848C89
:100F980001D0849CF0A905D0A3A302D07C8C01D0F9
:100FA8007C9CF0AB0AD00001DF838CBC03D001012C
:100FB800A89305D00101A88302D00001DF9394C152
:100FC800ECF10F0E0101EC1792C1EDF10F0EED17C8
:100FD800ED51050D600EEE6F000EEF6FF350EE272A
:100FE800F450EF23EC51EE25D96E000EEF21DA6EA6
:100FF800DF50F06FF0A103D00E01A68F02D00E01D2
:10100800A69F0101F0A304D00E01A78F010E03D003
:101018000E01A79F000E0101476FF0A503D00E0136
:10102800A58F02D00E01A59F0101F0A702D0848EE2
:1010380001D0849EF0A905D0A3A102D07C8E01D056
:101048007C9EF0AB0AD00001DF818CBE03D0010189
:10105800A89105D00101A88102D00001DF9196C1B5
:10106800ECF10101EC3B0F0EEC170F0EEC1795C1DC
:10107800EDF10F0EED17ED51050DAB0EEE6F000EF5
:10108800EF6FF350EE27F450EF23EC51EE25D96EB5
:10109800000EEF21DA6EDF50F06FF0A103D00E01E1
:1010A800AE8102D00E01AE910101F0A304D00E0171
:1010B800AF81010E03D00E01AF91000E01014A6FFE
:1010C800F0A503D00E01AD8102D00E01AD91010152
:1010D800F0A702D0858001D08590F0A905D0A4AFF3
:1010E80002D07D8001D07D90F0AB0AD00001DE8F68
:1010F8008DB003D00101A99F05D00101A98F02D0AD
:101108000001DE9F96C1ECF10F0E0101EC1795C1AD
:10111800EDF10F0EED17ED51050D920EEE6F000E6D
:10112800EF6FF350EE27F450EF23EC51EE25D96E14
:10113800000EEF21DA6EDF50F06FF0A103D00E0140
:10114800AE8302D00E01AE930101F0A304D00E01CC
:10115800AF83010E03D00E01AF93000E01014D6F56
:10116800F0A503D00E01AD8302D00E01AD930101AD
:10117800F0A702D0858201D08592F0A905D0A4AD50
:1011880002D07D8201D07D92F0AB0AD00001DE8DC5
:101198008DB203D00101A99D05D00101A98D02D00E
:1011A8000001DE9D97C1ECF10101EC3B0F0EEC173D
:1011B8000F0EEC1795C1EDF10F0EED17ED51050D62
:1011C800790EEE6F000EEF6FF350EE27F450EF2319
:1011D800EC51EE25D96E000EEF21DA6EDF50F06F7C
:1011E800F0A103D00E01AE8502D00E01AE9501012B
:1011F800F0A304D00E01AF85010E03D00E01AF9508
:10120800000E0101506FF0A503D00E01AD8502D08C
:101218000E01AD950101F0A702D0858401D0859417
:10122800F0A905D0A4AB02D07D8401D07D94F0ABA9
:101238000AD00001DE8B8DB403D00101A99B05D033
:101248000101A98B02D00001DE9B97C1ECF10F0EC2
:101258000101EC1795C1EDF10F0EED17ED51050DDC
:10126800600EEE6F000EEF6FF350EE27F450EF2391
:10127800EC51EE25D96E000EEF21DA6EDF50F06FDB
:10128800F0A103D00E01AE8702D00E01AE97010186
:10129800F0A304D00E01AF87010E03D00E01AF9763
:1012A800000E0101536FF0A503D00E01AD8702D0E7
:1012B8000E01AD970101F0A702D0858601D0859671
:1012C800F0A905D0A4A902D07D8601D07D96F0AB07
:1012D8000AD00001DE898DB603D00101A99905D095
:1012E8000101A98902D00001DE9999C1ECF101013F
:1012F800EC3B0F0EEC170F0EEC1798C1EDF10F0E2B
:10130800ED17ED51050DAB0EEE6F000EEF6FF350BC
:10131800EE27F450EF23EC51EE25D96E000EEF21A5
:10132800DA6EDF50F06FF0A103D00E01AE8902D063
:101338000E01AE990101F0A304D00E01AF89010E90
:1013480003D00E01AF99000E0101566FF0A503D02E
:101358000E01AD8902D00E01AD990101F0A702D0AE
:10136800858801D08598F0A905D0A4A702D07D88EA
:1013780001D07D98F0AB0AD00001DE878DB803D08C
:101388000101A99705D00101A98702D00001DE97C4
:1013980099C1ECF10F0E0101EC1798C1EDF10F0E98
:1013A800ED17ED51050D920EEE6F000EEF6FF35035
:1013B800EE27F450EF23EC51EE25D96E000EEF2105
:1013C800DA6EDF50F06FF0A103D00E01AE8B02D0C1
:1013D8000E01AE9B0101F0A304D00E01AF8B010EEC
:1013E80003D00E01AF9B000E0101596FF0A503D089
:1013F8000E01AD8B02D00E01AD9B0101F0A702D00A
:10140800858A01D0859AF0A905D0A4A502D07D8A45
:1014180001D07D9AF0AB0AD00001DE858DBA03D0E9
:101428000101A99505D00101A98502D00001DE9529
:101438009AC1ECF10101EC3B0F0EEC170F0EEC1703
:1014480098C1EDF10F0EED17ED51050D790EEE6F08
:10145800000EEF6FF350EE27F450EF23EC51EE251A
:10146800D96E000EEF21DA6EDF50F06FF0A103D0D5
:101478000E01AE8D02D00E01AE9D0101F0A304D085
:101488000E01AF8D010E03D00E01AF9D000E0101BC
:101498005C6FF0A503D00E01AD8D02D00E01AD9D9D
:1014A8000101F0A702D0858C01D0859CF0A905D058
:1014B800A4A302D07D8C01D07D9CF0AB0AD00001A2
:1014C800DE838DBC03D00101A99305D00101A98356
:1014D80002D00001DE939AC1ECF10F0E0101EC1766
:1014E80098C1EDF10F0EED17ED51050D600EEE6F81
:1014F800000EEF6FF350EE27F450EF23EC51EE257A
:10150800D96E000EEF21DA6EDF50F06FF0A103D034
:101518000E01AE8F02D00E01AE9F0101F0A304D0E0
:101528000E01AF8F010E03D00E01AF9F000E010117
:101538005F6FF0A503D00E01AD8F02D00E01AD9FF5
:101548000101F0A702D0858E01D0859EF0A905D0B3
:10155800A4A102D07D8E01D07D9EF0AB0AD00001FF
:10156800DE818DBE03D00101A99105D00101A981B9
:1015780002D00001DE9101019B510F0BE806D8B49F
:1015880005D09B510F0B020AD8A40FD00E01BB9DAA
:10159800BC9D000E0101626F0E01BA9D878C00018F
:1015A800DD9F83860E01A18756D083860E01A19701
:1015B8009CC1ECF10101EC3B0F0EEC170F0EEC1780
:1015C8009BC1EDF10F0EED17ED51050DAB0EEE6F52
:1015D800000EEF6FF350EE27F450EF23EC51EE2599
:1015E800D96E000EEF21DA6EDF50F06FF0A103D054
:1015F8000E01BB8D02D00E01BB9D0101F0A304D0EA
:101608000E01BC8D010E03D00E01BC9D000E010120
:10161800626FF0A503D00E01BA8D02D00E01BA9DFB
:101628000101F0A702D0878C01D0879CF0A905D0D2
:10163800A5AF02D07F8C01D07F9CF0AB0AD000010F
:10164800DD8F8FBC03D00101AA9F05D00101AA8FAD
:1016580002D00001DD9F9CC1ECF10F0E0101EC17D7
:101668009BC1EDF10F0EED17ED51050D920EEE6FCA
:10167800000EEF6FF350EE27F450EF23EC51EE25F8
:10168800D96E000EEF21DA6EDF50F06FF0A103D0B3
:101698000E01B38302D00E01B3930101F0A304D06D
:1016A8000E01B483010E03D00E01B493000E0101A4
:1016B800656FF0A503D00E01B28302D00E01B2937C
:1016C8000101F0A702D0868201D08692F0A905D048
:1016D800A5AD02D07E8201D07E92F0AB0AD0000187
:1016E800DD8D8EB203D00101AA9D05D00101AA8D1E
:1016F80002D00001DD9D9DC1ECF10101EC3B0F0E14
:10170800EC170F0EEC179BC1EDF10F0EED17ED5115
:10171800050D790EEE6F000EEF6FF350EE27F450C3
:10172800EF23EC51EE25D96E000EEF21DA6EDF5073
:10173800F06FF0A103D00E01B38502D00E01B3956E
:101748000101F0A304D00E01B485010E03D00E01EF
:10175800B495000E0101686FF0A503D00E01B285A3
:1017680002D00E01B2950101F0A702D0868401D003
:101778008694F0A905D0A5AB02D07E8401D07E94D2
:10178800F0AB0AD00001DD8B8EB403D00101AA9B17
:1017980005D00101AA8B02D00001DD9B9DC1ECF1AF
:1017A8000F0E0101EC179BC1EDF10F0EED17ED5176
:1017B800050D600EEE6F000EEF6FF350EE27F4503C
:1017C800EF23EC51EE25D96E000EEF21DA6EDF50D3
:1017D800F06FF0A103D00E01BB8F02D00E01BB9FAA
:1017E8000101F0A304D00E01BC8F010E03D00E013D
:1017F800BC9F000E01016B6FF0A503D00E01BA8FDC
:1018080002D00E01BA9F0101F0A702D0878E01D045
:10181800879EF0A905D0A5A902D07F8E01D07F9E12
:10182800F0AB0AD00001DD898FBE03D00101AA996F
:1018380005D00101AA8902D00001DD999FC1ECF110
:101848000101EC3B0F0EEC170F0EEC179EC1EDF1EA
:101858000F0EED17ED51050DAB0EEE6F000EEF6F8D
:10186800F350EE27F450EF23EC51EE25D96E000E1D
:10187800EF21DA6EDF50F06FF0A103D00E01B389CB
:1018880002D00E01B3990101F0A304D00E01B4896E
:10189800010E03D00E01B499000E01016E6FF0A580
:1018A80003D00E01B28902D00E01B2990101F0A74E
:1018B80002D0868801D08698F0A905D0A5A702D0C5
:1018C8007E8801D07E98F0AB0AD00001DD878EB803
:1018D80003D00101AA9705D00101AA8702D000010F
:1018E800DD979FC1ECF10F0E0101EC179EC1EDF1E0
:1018F8000F0EED17ED51050D920EEE6F000EEF6F06
:10190800F350EE27F450EF23EC51EE25D96E000E7C
:10191800EF21DA6EDF50F06FF0A103D00E01B38B28
:1019280002D00E01B39B0101F0A304D00E01B48BC9
:10193800010E03D00E01B49B000E0101716FF0A5DA
:1019480003D00E01B28B02D00E01B29B0101F0A7A9
:1019580002D0868A01D0869AF0A905D0A5A502D022
:101968007E8A01D07E9AF0AB0AD00001DD858EBA5E
:1019780003D00101AA9505D00101AA8502D0000172
:10198800DD95A0C1ECF10101EC3B0F0EEC170F0E39
:10199800EC179EC1EDF10F0EED17ED51050D790E07
:1019A800EE6F000EEF6FF350EE27F450EF23EC517B
:1019B800EE25D96E000EEF21DA6EDF50F06FF0A140
:1019C80003D00E01B38D02D00E01B39D0101F0A327
:1019D80004D00E01B48D010E03D00E01B49D000E8B
:1019E8000101746FF0A503D00E01B28D02D00E0173
:1019F800B29D0101F0A702D0868C01D0869CF0A987
:101A080005D0A5A302D07E8C01D07E9CF0AB0AD075
:101A18000001DD838EBC03D00101AA9305D001012A
:101A2800AA8302D00001DD93A0C1ECF10F0E0101E1
:101A3800EC179EC1EDF10F0EED17ED51050D600E7F
:101A4800EE6F000EEF6FF350EE27F450EF23EC51DA
:101A5800EE25D96E000EEF21DA6EDF50F06FF0A19F
:101A680003D00E01BB8902D00E01BB990101F0A37E
:101A780004D00E01BC89010E03D00E01BC99000EE2
:101A88000101776FF0A503D00E01BA8902D00E01CB
:101A9800BA990101F0A702D0878801D08798F0A9E8
:101AA80005D0A5A102D07F8801D07F98F0AB0AD0DD
:101AB8000001DD818FB803D00101AA911200010154
:101AC800AA8112000001DD911200020E0101786F57
:101AD800200E796F000E7A6F200E7B6F000E7C6FE0
:101AE800200E7D6F000E7E6F200E7F6F000E806FC0
:101AF800200E816F000E826F000E836F000E846FC0
:101B0800000E856F000E866F000E876F000E886FBF
:101B1800000E896F000E8A6F000E8B6F000E8C6F9F
:101B2800000E8D6F000E8E6F000E8F6F000E906F7F
:101B3800000E916F000E926F000E936F000E946F5F
:101B4800000E956F000E966F000E976F000E986F3F
:101B5800000E996F000E9A6F000E9B6F000E9C6F1F
:101B6800000E9D6F000E9E6F000E9F6F000EA06FFF
:101B7800000EA16F000EA26F000EA36F000EA46FDF
:101B8800000EA56F000EA66F000EA76F000EA86FBF
:101B9800000EA96F000EAA6F000EAB6F000EAC6F9F
:101BA800000EAD6F000EAE6F000EAF6F000EB06F7F
:101BB800000EB16F000EB26F000EB36F000EB46F5F
:101BC800B569B669B769B869B969BA69BB69BC6901
:101BD800BD69BE69BF69C069C169C269C369C469B1
:101BE800C569C669C769C869C969CA69CB69CC6961
:101BF800CD69CE69CF69D069D169D269D369D46911
:101C0800D569D669D769D869D969DA69DB69DC69C0
:101C1800000EDD6F000EDE6F000EDF6F000EE06F4E
:101C2800000EE16F000EE26F000EE36F000EE46F2E
:101C3800000EE56F000EE66F000EE76F000EE86F0E
:101C4800000EE96F000EEA6F000EEB6F300E006FAA
:101C58003D0E016F000E026F310E036F3E0E046FD2
:101C6800000E056F320E066F3F0E076F000E086FED
:101C7800330E096F400E0A6F000E0B6F000E0C6FCB
:101C8800410E0D6F000E0E6F010E0F6F420E106F9A
:101C9800000E116F020E126F430E136F000E146FB9
:101CA800030E156F440E166F000E176F080E186F8F
:101CB800450E196F000E1A6F090E1B6F460E1C6F2A
:101CC800000E1D6F0A0E1E6F470E1F6F000E206F4D
:101CD8000B0E216F480E226F000E236F040E246F27
:101CE800490E256F000E266F050E276F4A0E286FC6
:101CF800000E296F060E2A6F4B0E2B6F000E2C6FED
:101D0800070E2D6F4C0E2E6F000E2F6F180E306FB2
:101D18004D0E316F000E326F190E336F4E0E346F49
:101D2800000E356F1A0E366F4F0E376F000E386F74
:101D38001B0E396F500E3A6F000E3B6F1C0E3C6F36
:101D4800510E3D6F000E3E6F1D0E3F6F520E406FDD
:101D5800000E416F1E0E426F530E436F000E446F0C
:101D68001F0E456F540E466F000E476F200E486FCA
:101D7800550E496F000E4A6F210E4B6F560E4C6F71
:101D8800000E4D6F220E4E6F570E4F6F000E506FA4
:101D9800230E516F580E526F000E536F240E546F5E
:101DA800590E556F000E566F250E576F5A0E586F05
:101DB800000E596F260E5A6F5B0E5B6F000E5C6F3C
:101DC800270E5D6F5C0E5E6F000E5F6F360E606FE4
:101DD8005D0E616F000E626F290E636F5E0E646F99
:101DE800000E656F2A0E666F5F0E676F000E686FD4
:101DF800370E696F600E6A6F000E6B6F2C0E6C6F7A
:101E0800610E6D6F000E6E6F2D0E6F6F620E706F2C
:101E1800000E716F2E0E726F630E736F000E746F6B
:101E2800340E756F640E766F000E776F090E000121
:101E3800AB6F0A0EAC6F290EAD6F150EAE6F100E9C
:101E4800AF6F090EB06F090EB16F090EB26F090EB0
:101E5800B36F090EB46F090EB56F090EB66F090E90
:101E6800B76F090EB86F090EB96F080EBA6F080E72
:101E7800BB6F080EBC6F080EBD6F080EBE6F150E47
:101E8800BF6F150EC06F150EC16F150EC26F150E00
:101E9800C36F090E926F0A0E936F290E946F150E79
:101EA800956F100E966F090E976F090E986F090EB1
:101EB800996F090E9A6F090E9B6F090E9C6F090E98
:101EC8009D6F090E9E6F090E9F6F090EA06F080E79
:101ED800A16F080EA26F080EA36F080EA46F080E5C
:101EE800A56F080EA66F080EA76F080EA86F080E3C
:101EF800A96F080EAA6F090E796F0A0E7A6F290E5C
:101F08007B6F150E7C6F100E7D6F090E7E6F0A0EAB
:101F18007F6F290E806F150E816F100E826F050E70
:101F2800836F050E846F050E856F050E866F050E8F
:101F3800876F090E886F0A0E896F290E8A6F150E32
:101F48008B6F100E8C6F080E8D6F080E8E6F080E3B
:101F58008F6F080E906F080E916F090E606F0A0E52
:101F6800616F290E626F150E636F100E646F090E94
:101F7800656F0A0E666F290E676F150E686F100E73
:101F8800696F090E6A6F090E6B6F090E6C6F090E87
:101F98006D6F090E6E6F090E6F6F0A0E706F290E46
:101FA800716F150E726F100E736F080E746F080E36
:101FB800756F080E766F080E776F080E786F12002F
:101FC800FACF0AF0FBCF0BF0E9CF0CF0EACF0DF017
:101FD800E1CF0EF0E2CF0FF0D9CF10F0DACF11F049
:101FE800F3CF12F0F4CF13F0F6CF14F0F7CF15F0CB
:101FF800F8CF16F0F5CF17F03EC018F03FC019F033
:1020080040C01AF041C01BF00E0136A109D136912B
:1020180091CF1CF03C50D8A4F3D01C507F0B3B6EE2
:102028001CBE08D0730E3B6402D0020E01D0000E15
:102038003A6EE6D0730E3B6402D0030E01D0010E57
:102048003A6EECD03B50010D780EF324D96E010E98
:10205800F420DA6EDF50916E320E3B641CD03E0ED7
:102068003B6019D03C50D8B416D03B50D8B413D0EC
:10207800FF0E066EFF0E076E3B50086E096A06508B
:10208800082607500922780E0824D96E010E092067
:10209800DA6E000EDF6E640E3B641CD06B0E3B6084
:1020A80019D03C50D8B416D03B50D8B413D0FF0E3A
:1020B800066EFF0E076E3B50086E096A065008262A
:1020C80007500922780E0824D96E010E0920DA6E0D
:1020D800000EDF6E730E3B60A1D03B2A9FD03B50B1
:1020E800D8A40AD01CC006F0E00E061601017851EB
:1020F8001F0B0610786F0DD02E0E3B600AD03B5098
:10210800010D780EF324D96E010EF420DA6E1CC08E
:10211800DFFF730E3B6001D03B2A010E6DD0010E2C
:1021280073EC1FF0916E1C50D8B478D0000E73EC8D
:102138001FF074D0010E32EC1FF0916E1C50D8B411
:102148006DD0000E32EC1FF069D0010EF1EC1EF0DC
:10215800916E1C50D8B462D0000EF1EC1EF05ED027
:10216800010EB0EC1EF0916E1C50D8B457D0000E82
:10217800B0EC1EF053D0010E6FEC1EF0916E1C50A7
:10218800D8B44CD0000E6FEC1EF048D03B50740A07
:10219800D8B4C5D7010AD8B4CDD7030AD8B4D5D78F
:1021A800010AD8B4DDD70F0AD8B4E5D737D01C5008
:1021B8002BEC1EF020D01C50E7EC1DF01CD01C505E
:1021C800A3EC1DF018D01C505FEC1DF014D01C506F
:1021D8001BEC1DF010D03B50790AD8B4E8D7030A9D
:1021E800D8B4E9D7010AD8B4EAD7070AD8B4EBD7E4
:1021F800010AD8B4ECD7040E916E10D091680ED0B5
:102208003A50000AD8B41ED7010AD8B468D7030ACE
:10221800D8B4BCD7010AD8B4DED7F0D7010E3C6ECB
:102228001BC041F01AC040F019C03FF018C03EF082
:1022380017C0F5FF16C0F8FF15C0F7FF14C0F6FF6A
:1022480013C0F4FF12C0F3FF11C0DAFF10C0D9FFAA
:102258000FC0E2FF0EC0E1FF0DC0EAFF0CC0E9FFAE
:102268000BC0FBFF0AC0FAFF3E921100000E796E08
:10227800200E7A6EE10E7B6E000E7C6E000E7D6E77
:10228800090E7E6E200E7F6E000E806E8168DF0E56
:10229800826E1E0E836E84688568760E866E8768E9
:1022A800FC0E886E000E0101F46F000EF36FF4BF90
:1022B80003D0F4512AE125D088828890090E0101C3
:1022C800F26F1E0EF16FE40EE82EFED7F12FFCD749
:1022D800F22FFAD700F088928880090E0101F26F78
:1022E8001E0EF16FE40EE82EFED7F12FFCD7F22F69
:1022F800FAD700F00101F34BF42BF4BFDDD7F4510A
:1023080004E1050EF35DD8A0D7D7888288801A0E1D
:102318000E01626F110E1A6F120E196F0C0E1B6FE1
:10232800140E826F310E176F120E5A6F090E156F49
:102338000E0E6A6F190E116F100E726F210E136F49
:102348000C0E656F140E0F6F949E949C959E959C31
:1023580095889550F00B0409956E958A000E916E3C
:10236800608E609C608860940F015899FC0E581725
:102378000E012281239B239923972395239323914D
:10238800229F229D229B22992C812D8B2D992D876E
:102398002D952C8F2C9D2D832D912C8B2C99F2967D
:1023A800F294F292F290F28AF28CF28E000E3C6E67
:1023B800C5EC1CF069EC0DF08DEC00F0000E01018D
:1023C800AB6F000EAC6F000EAD6F000EAE6F000E5F
:1023D800AF6F000EB06F000EB16F000EB26F000E3F
:1023E800B36F000EB46F7E8004008AB802D080926A
:1023F800FBD7000E3C6E80828DEC00F049EC12F0A9
:1024080095EC1AF02AEC1AF013EC13F08FB609D0F9
:10241800010183510F0B020AD8A403D00E0137B96A
:102428002D898AB609D0010189510F0B020AD8A457
:1024380003D00E0137B52D858CB609D001018F5117
:102448000F0B020AD8A403D00E0136BD2C8D8DB611
:1024580009D0010195510F0B020AD8A403D00E012F
:1024680037B12D818FBE09D001019B510F0B020A94
:10247800D8A403D00E0136B92C8901017851E00B9C
:10248800A00AD8A4B1D7FF00AFD70101A651000117
:10249800E1150101EC6FA6510001E1150101ED6F95
:1024A8000001DC51E1150101ED19EC15EE6FEE515B
:1024B800AB130001DC51E1150101EC6FA6510001DD
:1024C800E1150101ED6F0001DC51E1150101ED1984
:1024D800EC15EE6FEE51B013A7510001E0150101A4
:1024E800EC6FA7510001E0150101ED6F0001DB5110
:1024F800E0150101ED19EC15EE6FEE51AC1300017A
:10250800DB51E0150101EC6FA7510001E015010155
:10251800ED6F0001DB51E0150101ED19EC15EE6FCF
:10252800EE51B113A8510001DF150101EC6FA8515C
:102538000001DF150101ED6F0001DA51DF1501011E
:10254800ED19EC15EE6FEE51AD130001DA51DF1500
:102558000101EC6FA8510001DF150101ED6F0001C9
:10256800DA51DF150101ED19EC15EE6FEE51B213DA
:10257800A9510001DE150101EC6FA9510001DE151A
:102588000101ED6F0001D951DE150101ED19EC15BE
:10259800EE6FEE51AE130001D951DE150101EC6F5B
:1025A800A9510001DE150101ED6F0001D951DE15B9
:1025B8000101ED19EC15EE6FEE51B313AA510001AC
:1025C800DD150101EC6FAA510001DD150101ED6F68
:1025D8000001D851DD150101ED19EC15EE6FEE5132
:1025E800AF130001D851DD150101EC6FAA510001AC
:1025F800DD150101ED6F0001D851DD150101ED195F
:10260800EC15EE6FEE51B413A6C1DCF0A7C1DBF0F8
:10261800A8C1DAF0A9C1D9F0AAC1D8F01200010105
:1026280083510F0BE806D8B405D083510F0B020A6B
:10263800D8A40ED00001FB5101017919D8B40FD0EC
:10264800140E0E01826F8EEC15F079C1FBF007D0E5
:10265800000E0E01826FE19BE09F0001FB69010102
:1026680089510F0BE806D8B405D089510F0B020A1F
:10267800D8A40ED00001FA5101017B19D8B40FD0AB
:10268800120E0E015A6FF0EC14F07BC1FAF007D06D
:10269800000E0E015A6FE89BE79F0001FA690101DD
:1026A8008F510F0BE806D8B405D08F510F0B020AD3
:1026B800D8A40ED00001F95101017D19D8B40FD06A
:1026C8000E0E0E016A6F52EC14F07DC1F9F007D0BE
:1026D800000E0E016A6FF69BF59F0001F969010172
:1026E80095510F0BE806D8B405D095510F0B020A87
:1026F800D8A40ED00001F85101017F19D8B40FD029
:10270800100E0E01726FB4EC13F07FC1F8F007D011
:10271800000E0E01726FEF9BEE9F0001F869010138
:102728009B510F0BE806D8B405D09B510F0B020A3A
:10273800D8A40ED00001F75101018119D8B41200B4
:102748000C0E0E01656F0BEC19F081C1F7F0120049
:10275800000E0E01656F9D9A9C9E0001F76912009C
:10276800000E0001CB6F000ECA6F000EC96F000E7D
:10277800C86F000E2D6E000E2C6E000E2B6E000E14
:102788002A6ECAC0EAF1C8C0E5F1000E0101EE6F79
:10279800EE29D8B40CD0EE51010D000EF324D96EF9
:1027A8000B0EF420DA6E000EDF6EEE2BF1D7000E62
:1027B800EE6FEE29D8B40CD0EE51010D000EF324C3
:1027C800D96E060EF420DA6E000EDF6EEE2BF1D70E
:1027D800000EE06F0E01F099F093F087F09101017F
:1027E8007F51F00BED6F29D01A0E0E01ED6F0A0E16
:1027F80022D00C0E0E01ED6FFA0E1DD0040E0E0144
:10280800ED6F560E18D0030E0E01ED6F400E13D06B
:10281800010E0E01ED6FA00E0ED0010E0E01ED6F30
:10282800140E09D0000E0E01ED6F8A0E04D0060EAC
:102838000E01ED6F820EEC6F1BD00101ED51000A05
:10284800D8B4D2D7100AD8B4D4D7300AD8B4EFD76E
:10285800100AD8B4D3D7700AD8B4D5D7100AD8B4C8
:10286800D7D7300AD8B4D9D7100AD8B4DBD7DFD72E
:102878007FC1ECF1030E0101EC17D8A404D00E01BE
:10288800EF9DEE9D03D00E01EF8DEE8DEF99EF8554
:10289800EE97EE93EF8BEE8FEE891200000E00019B
:1028A800CF6F000ECE6F000ECD6F000ECC6F000EF6
:1028B800316E000E306E000E2F6E000E2E6ECEC0E2
:1028C800E9F1CCC0E4F1000E0101EE6FEE29D8B4B5
:1028D8000CD0EE51010D000EF324D96E0A0EF4202F
:1028E800DA6E000EDF6EEE2BF1D7000EEE6FEE29DA
:1028F800D8B40CD0EE51010D000EF324D96E050E9C
:10290800F420DA6E000EDF6EEE2BF1D7000EDF6FCB
:102918000E01F799F793F787F79101017D51F00BB5
:10292800ED6F29D01A0E0E01F46F0A0E22D00C0E8C
:102938000E01F46FFA0E1DD0040E0E01F46F560E40
:1029480018D0030E0E01F46F400E13D0010E0E01C5
:10295800F46FA00E0ED0010E0E01F46F140E09D004
:10296800000E0E01F46F8A0E04D0060E0E01F46FED
:10297800820EF36F1BD00101ED51000AD8B4D2D7F3
:10298800100AD8B4D4D7300AD8B4EFD7100AD8B4BC
:10299800D3D7700AD8B4D5D7100AD8B4D7D7300A45
:1029A800D8B4D9D7100AD8B4DBD7DFD77DC1ECF1BA
:1029B800030E0101EC17D8A404D00E01F69DF59D75
:1029C80003D00E01F68DF58DF699F685F597F593FA
:1029D800F68BF58FF5891200000E0001D36F000EFB
:1029E800D26F000ED16F000ED06F000E356E000E44
:1029F800346E000E336E000E326ED2C0E8F1D0C0D5
:102A0800E3F1000E0101EE6FEE29D8B40CD0EE51BF
:102A1800010D000EF324D96E090EF420DA6E000EB3
:102A2800DF6EEE2BF1D7000EEE6FEE29D8B40CD086
:102A3800EE51010D000EF324D96E040EF420DA6E67
:102A4800000EDF6EEE2BF1D7000EDE6F0E01E99956
:102A5800E993E987E99101017B51F00BED6F29D0EA
:102A68001A0E0E01E66F0A0E22D00C0E0E01E66F4A
:102A7800FA0E1DD0040E0E01E66F560E18D0030E86
:102A88000E01E66F400E13D0010E0E01E66FA00E88
:102A98000ED0010E0E01E66F140E09D0000E0E01C5
:102AA800E66F8A0E04D0060E0E01E66F820EE56F01
:102AB8001BD00101ED51000AD8B4D2D7100AD8B4FE
:102AC800D4D7300AD8B4EFD7100AD8B4D3D7700AFD
:102AD800D8B4D5D7100AD8B4D7D7300AD8B4D9D7EC
:102AE800100AD8B4DBD7DFD77BC1ECF1030E0101A4
:102AF800EC17D8A404D00E01E89DE79D03D00E0181
:102B0800E88DE78DE899E885E797E793E88BE78F05
:102B1800E7891200000E0001D76F000ED66F000E75
:102B2800D56F000ED46F000E396E000E386E000E91
:102B3800376E000E366ED6C0E7F1D4C0E2F1000E53
:102B48000101EE6FEE29D8B40CD0EE51010D000E44
:102B5800F324D96E080EF420DA6E000EDF6EEE2B29
:102B6800F1D7000EEE6FEE29D8B40CD0EE51010D5E
:102B7800000EF324D96E030EF420DA6E000EDF6E19
:102B8800EE2BF1D7000EDD6F0E01E299E293E2879A
:102B9800E29101017951F00BED6F29D01A0E0E0167
:102BA800DF6F0A0E22D00C0E0E01DF6FFA0E1DD059
:102BB800040E0E01DF6F560E18D0030E0E01DF6FE4
:102BC800400E13D0010E0E01DF6FA00E0ED0010EC5
:102BD8000E01DF6F140E09D0000E0E01DF6F8A0E92
:102BE80004D0060E0E01DF6F820EDE6F1BD00101CE
:102BF800ED51000AD8B4D2D7100AD8B4D4D7300AC5
:102C0800D8B4EFD7100AD8B4D3D7700AD8B4D5D768
:102C1800100AD8B4D7D7300AD8B4D9D7100AD8B43C
:102C2800DBD7DFD779C1ECF1030E0101EC17D8A48B
:102C380004D00E01E19DE09D03D00E01E18DE08DF1
:102C4800E199E185E097E093E18BE08FE08912005C
:102C5800B80EF66E3F0EF76E000EF86E00EEF7F047
:102C680010EE05F00900F5CFEEFFE550E150FAE16E
:102C78000CEE00F011EE00F0EE6AE550E150FCE1D8
:102C8800E250FAE10BEE00F011EE00F0EE6AE550CA
:102C9800E150FCE1E250FAE10AEE00F011EE00F03A
:102CA800EE6AE550E150FCE1E250FAE109EE00F08D
:102CB80011EE00F0EE6AE550E150FCE1E250FAE175
:102CC80008EE00F011EE00F0EE6AE550E150FCE18C
:102CD800E250FAE107EE00F011EE00F0EE6AE5507E
:102CE800E150FCE1E250FAE106EE00F011EE00F0EE
:102CF800EE6AE550E150FCE1E250FAE105EE00F041
:102D080011EE00F0EE6AE550E150FCE1E250FAE124
:102D180004EE00F011EE00F0EE6AE550E150FCE13F
:102D2800E250FAE103EE00F011EE00F0EE6AE55031
:102D3800E150FCE1E250FAE102EE00F0280EEE6A02
:102D4800E806FDE101EE00F0EC0EEE6AE806FDE1B2
:102D580000EE60F0820EEE6AE806FDE100EE26F075
:102D6800180EEE6AE806FDE13E903E92000EF86EFF
:102D780000013AEF11F00E01EEB502D0EEA38AD0B1
:102D8800EACE25F0EEA502D00101E0870E01EEA300
:102D980012000101E0850E01EE931200EACE25F043
:102DA8000001C95166E1FE0EC85DD8B062D07FC18E
:102DB80020F0030E2016D8B43DD001017F51030B3B
:102DC800E806D8A404D02550B4EC1FF003D0255051
:102DD800C8EC1FF0246E0E01EEA102D0010E01D046
:102DE800000E2418D8A423D0F29E0001C8512A242A
:102DF800206EC9512B20216E215003E12028D8A034
:102E080025D0010E206EFF0E216EC8512A24226E95
:102E1800C9512B20236E2050222621502322000E38
:102E28002224D96E060E23201CD0F28E24D0010154
:102E3800E08321D0F29EC8512A24206EC9512B204C
:102E4800216E2150DEE12028D8B0DBD7C8512A24D2
:102E5800206EC9512B20216E000E2024D96E060E3B
:102E68002120DA6E25C0DFFFC84BC92BC8C0E5F1A9
:102E7800DCD70101E0810001C95104E1F10EC85D10
:102E8800D8A008D0010195510F0B020AD8A402D08E
:102E98007D84E0810E0137A3120080D70E01F5B5BD
:102EA80002D0F5A38AD0F1CE25F0F5A502D0010114
:102EB800DF870E01F5A312000101DF850E01F593EE
:102EC8001200F1CE25F00001CD5166E1FE0ECC5D79
:102ED800D8B062D07DC120F0030E2016D8B43DD002
:102EE80001017D51030BE806D8A404D02550B4ECA9
:102EF8001FF003D02550C8EC1FF0246E0E01F5A179
:102F080002D0010E01D0000E2418D8A423D0F29EBE
:102F18000001CC512E24206ECD512F20216E21503E
:102F280003E12028D8A025D0010E206EFF0E216EC7
:102F3800CC512E24226ECD512F20236E20502226D4
:102F480021502322000E2224D96E050E23201CD0E6
:102F5800F28E24D00101DF8321D0F29ECC512E24A1
:102F6800206ECD512F20216E2150DEE12028D8B0CF
:102F7800DBD7CC512E24206ECD512F20216E000E90
:102F88002024D96E050E2120DA6E25C0DFFFCC4B38
:102F9800CD2BCCC0E4F1DCD70101DF810001CD519C
:102FA80004E1F10ECC5DD8A008D001018F510F0BC0
:102FB800020AD8A402D07C84DF810E0136AF120049
:102FC80080D70E01E7B502D0E7A38AD0E3CE25F07B
:102FD800E7A502D00101DE870E01E7A31200010177
:102FE800DE850E01E7931200E3CE25F00001D151F2
:102FF80066E1FE0ED05DD8B062D07BC120F0030E32
:103008002016D8B43DD001017B51030BE806D8A4A3
:1030180004D02550B4EC1FF003D02550C8EC1FF0A5
:10302800246E0E01E7A102D0010E01D0000E241873
:10303800D8A423D0F29E0001D0513224206ED15161
:103048003320216E215003E12028D8A025D0010E7D
:10305800206EFF0E216ED0513224226ED1513320C2
:10306800236E2050222621502322000E2224D96EBE
:10307800040E23201CD0F28E24D00101DE8321D03F
:10308800F29ED0513224206ED1513320216E21502E
:10309800DEE12028D8B0DBD7D0513224206ED151C0
:1030A8003320216E000E2024D96E040E2120DA6E02
:1030B80025C0DFFFD04BD12BD0C0E3F1DCD7010115
:1030C800DE810001D15104E1F10ED05DD8A008D015
:1030D800010189510F0B020AD8A402D07A84DE813B
:1030E8000E0137A7120080D70E01E0B502D0E0A389
:1030F8008AD0DCCE25F0E0A502D00101DD870E01E3
:10310800E0A312000101DD850E01E0931200DCCE80
:1031180025F00001D55166E1FE0ED45DD8B062D02D
:1031280079C120F0030E2016D8B43DD001017951A1
:10313800030BE806D8A404D02550B4EC1FF003D044
:103148002550C8EC1FF0246E0E01E0A102D0010E3C
:1031580001D0000E2418D8A423D0F29E0001D45127
:103168003624206ED5513720216E215003E12028C6
:10317800D8A025D0010E206EFF0E216ED451362422
:10318800226ED5513720236E20502226215023222B
:10319800000E2224D96E030E23201CD0F28E24D0D8
:1031A8000101DD8321D0F29ED4513624206ED55101
:1031B8003720216E2150DEE12028D8B0DBD7D4514A
:1031C8003624206ED5513720216E000E2024D96E6A
:1031D800030E2120DA6E25C0DFFFD44BD52BD4C0D7
:1031E800E2F1DCD70101DD810001D55104E1F10EE6
:1031F800D45DD8A008D0010183510F0B020AD8A4CE
:1032080002D07F84DD810E0137AB120080D7000E1B
:103218000001C76F000EC66F000EC56F000EC46FA9
:10322800000E296E000E286E000E276E000E266E08
:10323800C6C0EBF1C4C0E6F1000E0101EE6FEE2945
:10324800D8B40CD0EE51010D000EF324D96E0C0E3B
:10325800F420DA6E000EDF6EEE2BF1D7000EEE6F63
:10326800EE29D8B40CD0EE51010D000EF324D96E1E
:10327800070EF420DA6E000EDF6EEE2BF1D7000E8B
:10328800E16F9E989E929E869E908151F00BED6F05
:1032980021D01A0E9B6E0A0E1BD00C0E9B6EFA0ED6
:1032A80017D0040E9B6E560E13D0030E9B6E400E65
:1032B8000FD0010E9B6EA00E0BD0010E9B6E140E4C
:1032C80007D0000E9B6E8A0E03D0060E9B6E820EF0
:1032D8009A6E1AD0ED51000AD8B4DBD7100AD8B4C8
:1032E800DCD7300AD8B4F1D7100AD8B4DAD7700AC4
:1032F800D8B4DBD7100AD8B4DCD7300AD8B4DDD7B5
:10330800100AD8B4DED7E1D781C1ECF1030EEC176F
:10331800D8A403D09D9C9C9C02D09D8C9C8C9D988D
:103328009D849C969C929D8A9C8E9C8812009CB43D
:1033380002D09CA287D098CF25F09CA402D001018E
:10334800E1879CA212000101E1859C92120098CFAE
:1033580025F00001C55165E1FE0EC45DD8B061D00D
:1033680081C120F0030E2016D8B43CD00101815150
:10337800030BE806D8A404D02550B4EC1FF003D002
:103388002550C8EC1FF0246E9CA002D0010E01D07D
:10339800000E2418D8A423D0F29E0001C45126247C
:1033A800206EC5512720216E215003E12028D8A086
:1033B80025D0010E206EFF0E216EC4512624226EE8
:1033C800C5512720236E2050222621502322000E8B
:1033D8002224D96E070E23201CD0F28E24D001019E
:1033E800E18321D0F29EC4512624206EC5512720A6
:1033F800216E2150DEE12028D8B0DBD7C451262425
:10340800206EC5512720216E000E2024D96E070E8C
:103418002120DA6E25C0DFFFC44BC52BC4C0E6F1FE
:10342800DCD70101E1810001C55104E1F10EC45D61
:10343800D8A008D001019B510F0B020AD8A402D0D2
:103448007E84E1810E0136AB120081D7000E0101A6
:10345800F06F000EF06FAC51ABC1ECF1ED6BEC27E7
:10346800000EED23AD51EC27000EED23AE51EC27F5
:10347800000EED23AF51EC25EE6F000EED21EF6F3E
:10348800B151B0C1ECF1ED6BEC27000EED23B25158
:10349800EC27000EED23B351EC27000EED23B451B9
:1034A800EC27000EED23EE51EC25EE6FEF51ED21E8
:1034B800EF6FEE51EF11D8B404D07E90010EF06F8B
:1034C80001D07E80E251D8B404D07E96010EF06F10
:1034D80001D07E86E351D8B404D07A9A010EF06FF9
:1034E80001D07A8AE451D8B404D07B9A010EF06FE7
:1034F80001D07B8AE551D8B404D07B9E010EF06FD1
:1035080001D07B8EE651D8B404D07B9C010EF06FBD
:1035180001D07B8CF005D8A402D080901200808066
:10352800120060B012003D50030D020EF326000E8B
:10353800F422000EF324D96E010EF420DA6EDE04B4
:10354800D8A41AD03D50030D010EF326000EF42224
:10355800000EF324D96E010EF420DA6EDF5001015B
:10356800EC6FEC51010D780EF324D96E010EF420A6
:10357800DA6E64CFDFFF19D03D50030D010EF3263C
:10358800000EF422000EF324D96E010EF420DA6E38
:10359800DF500101EC6FEC51010D780EF324D96E68
:1035A800010EF420DA6E000EDF6E3D2A270E3D6410
:1035B80002D0000E3D6E3D50030D020EF326000EA4
:1035C800F422000EF324D96E010EF420DA6EDE0424
:1035D800D8A412003D50030D000EF324D96E010E3D
:1035E800F420DA6EDF500F015F6F6080120057D051
:1035F8008DA609D0010195510F0B020AD8A403D05A
:103608000E012D9112000001CA51CB11D8A403D08C
:103618000E012D9112007FC120F0030E2016D8B4A0
:1036280020D001017F51030BE806D8A40AD0000E70
:103638002C24D96E0B0E2D20DA6EDF50B4EC1FF05F
:1036480009D0000E2C24D96E0B0E2D20DA6EDF5017
:10365800C8EC1FF0206E0E01EF512018FE0B201849
:10366800EF6FF29E000E2C24D96E0B0E2D20DA6E11
:10367800DF500E01EB6F0001CA07D8A0CB07CAC004
:10368800EAF12D5004E1FE0E2C5CD8A005D0000E06
:103698002D6E000E2C6E02D02C4A2D2AF28E0E01B1
:1036A80037A11200A5D757D08CA609D001018F5198
:1036B8000F0B020AD8A403D00E012C9D12000001A2
:1036C800CE51CF11D8A403D00E012C9D12007DC17C
:1036D80020F0030E2016D8B420D001017D51030B31
:1036E800E806D8A40AD0000E3024D96E0A0E31207C
:1036F800DA6EDF50B4EC1FF009D0000E3024D96E1A
:103708000A0E3120DA6EDF50C8EC1FF0206E0E0171
:10371800F6512018FE0B2018F66FF29E000E30248A
:10372800D96E0A0E3120DA6EDF500E01F26F0001F9
:10373800CE07D8A0CF07CEC0E9F1315004E1FE0E84
:10374800305CD8A005D0000E316E000E306E02D06D
:10375800304A312AF28E0E0136AD1200A5D757D065
:103768008AA609D0010189510F0B020AD8A403D0F7
:103778000E012D9512000001D251D311D8A403D007
:103788000E012D9512007BC120F0030E2016D8B42F
:1037980020D001017B51030BE806D8A40AD0000E03
:1037A8003424D96E090E3520DA6EDF50B4EC1FF0E0
:1037B80009D0000E3424D96E090E3520DA6EDF5098
:1037C800C8EC1FF0206E0E01E8512018FE0B2018DF
:1037D800E86FF29E000E3424D96E090E3520DA6E99
:1037E800DF500E01E46F0001D207D8A0D307D2C082
:1037F800E8F1355004E1FE0E345CD8A005D0000E87
:10380800356E000E346E02D0344A352AF28E0E011F
:1038180037A51200A5D757D08FA609D0010183512B
:103828000F0B020AD8A403D00E012D991200000133
:10383800D651D711D8A403D00E012D99120079C101
:1038480020F0030E2016D8B420D001017951030BC3
:10385800E806D8A40AD0000E3824D96E080E3920FC
:10386800DA6EDF50B4EC1FF009D0000E3824D96EA0
:10387800080E3920DA6EDF50C8EC1FF0206E0E01FA
:10388800E1512018FE0B2018E16FF29E000E38243B
:10389800D96E080E3920DA6EDF500E01DD6F000197
:1038A800D607D8A0D707D6C0E7F1395004E1FE0EF5
:1038B800385CD8A005D0000E396E000E386E02D0E4
:1038C800384A392AF28E0E0137A91200A5D755D0E9
:1038D8008FAE09D001019B510F0B020AD8A403D067
:1038E8000E012C9912000001C651C711D8A403D0AB
:1038F8000E012C99120081C120F0030E2016D8B4B5
:103908001FD001018151030BE806D8A40AD0000E8C
:103918002824D96E0C0E2920DA6EDF50B4EC1FF083
:1039280009D0000E2824D96E0C0E2920DA6EDF503B
:10393800C8EC1FF0206E9D502018FE0B20189D6EBD
:10394800F29E000E2824D96E0C0E2920DA6EDF5064
:10395800996E0001C607D8A0C707C6C0EBF1295069
:1039680004E1FE0E285CD8A005D0000E296E000EDA
:10397800286E02D0284A292AF28E0E0136A9120092
:10398800A7D780800E01BF8188908082BF838892EC
:10399800C0858884C0878886B381B2817E808690FE
:1039A800B387B2877E868696998B988B7A8A829A15
:1039B800A18BA08B7B8A839AA18FA08F7B8E839EFD
:1039C800A18DA08D7B8C839C828899899A99838408
:1039D800A1858382A1838390BB81BB83BB85BB8781
:1039E8009181918391859187998199839985998707
:1039F8009189918B918D918FA681A683A685A687A3
:103A0800A689A68BA68DA68FAE81AE83AE85AE871E
:103A1800AE89AE8BAE8DAE8FBB8DB383B385BB8FB6
:103A2800B389B38BB38DBB89838683881200056EF7
:103A38000E012C990001C75136E1FE0EC65DD8B0C3
:103A480032D0C6512824016EC7512920026E025077
:103A580003E10128D8A014D0010E016EFF0E026EFA
:103A6800C6512824036EC7512920046E015003262D
:103A780002500422000E0324D96E0C0E04200BD031
:103A8800C6512824016EC7512920026E000E012458
:103A9800D96E0C0E0220DA6E05C0DFFFC64BC72BAD
:103AA800C6C0EBF105D00101E18D0E012C89120091
:103AB8000E012C891200056E0E012D910001CB51CB
:103AC80036E1FE0ECA5DD8B032D0CA512C24016E40
:103AD800CB512D20026E025003E10128D8A014D04A
:103AE800010E016EFF0E026ECA512C24036ECB51DB
:103AF8002D20046E0150032602500422000E0324D8
:103B0800D96E0B0E04200BD0CA512C24016ECB5158
:103B18002D20026E000E0124D96E0B0E0220DA6EE3
:103B280005C0DFFFCA4BCB2BCAC0EAF105D00101A3
:103B3800E08D0E012D8112000E012D811200056EFF
:103B48000E012C9D0001CF5136E1FE0ECE5DD8B09E
:103B580032D0CE513024016ECF513120026E025046
:103B680003E10128D8A014D0010E016EFF0E026EE9
:103B7800CE513024036ECF513120046E01500326FC
:103B880002500422000E0324D96E0A0E04200BD022
:103B9800CE513024016ECF513120026E000E012427
:103BA800D96E0A0E0220DA6E05C0DFFFCE4BCF2B8E
:103BB800CEC0E9F105D00101DF8D0E012C8D120078
:103BC8000E012C8D1200056E0E012D950001D351AA
:103BD80036E1FE0ED25DD8B032D0D2513424016E17
:103BE800D3513520026E025003E10128D8A014D029
:103BF800010E016EFF0E026ED2513424036ED351B2
:103C08003520046E0150032602500422000E0324BE
:103C1800D96E090E04200BD0D2513424016ED35131
:103C28003520026E000E0124D96E090E0220DA6ECC
:103C380005C0DFFFD24BD32BD2C0E8F105D001017C
:103C4800DE8D0E012D8512000E012D851200056EE8
:103C58000E012D990001D75136E1FE0ED65DD8B080
:103C680032D0D6513824016ED7513920026E025015
:103C780003E10128D8A014D0010E016EFF0E026ED8
:103C8800D6513824036ED7513920046E01500326CB
:103C980002500422000E0324D96E080E04200BD013
:103CA800D6513824016ED7513920026E000E0124F6
:103CB800D96E080E0220DA6E05C0DFFFD64BD72B6F
:103CC800D6C0E7F105D00101DD8D0E012D89120066
:103CD8000E012D891200016E0001C451C511D8A42E
:103CE80002D0000E12000104D8A408D0000E262429
:103CF800D96E070E2720DA6EDF5012000E012C9BBA
:103D0800000E2624D96E070E2720DA6EDF50026EC9
:103D18000001C407D8A0C507C4C0E6F1275004E1D4
:103D2800FE0E265CD8A005D0000E276E000E266E6B
:103D380002D0264A272A0E012C8B01019B510F0B1A
:103D4800020AD8A407D00001C55104E1E70EC45DFA
:103D5800D8A07E9402501200016E0001C851C9110A
:103D6800D8A402D0000E12000104D8A408D0000E76
:103D78002A24D96E060E2B20DA6EDF5012000E01AF
:103D88002D93000E2A24D96E060E2B20DA6EDF50F2
:103D9800026E0001C807D8A0C907C8C0E5F12B50BA
:103DA80004E1FE0E2A5CD8A005D0000E2B6E000E92
:103DB8002A6E02D02A4A2B2A0E012D830101955121
:103DC8000F0B020AD8A407D00001C95104E1E70E7D
:103DD800C85DD8A07D9402501200016E0001CC513C
:103DE800CD11D8A402D0000E12000104D8A408D026
:103DF800000E2E24D96E050E2F20DA6EDF50120029
:103E08000E012C9F000E2E24D96E050E2F20DA6E7F
:103E1800DF50026E0001CC07D8A0CD07CCC0E4F17A
:103E28002F5004E1FE0E2E5CD8A005D0000E2F6E98
:103E3800000E2E6E02D02E4A2F2A0E012C8F010161
:103E48008F510F0B020AD8A407D00001CD5104E10D
:103E5800E70ECC5DD8A07C9402501200016E0001E0
:103E6800D051D111D8A402D0000E12000104D8A458
:103E780008D0000E3224D96E040E3320DA6EDF50DB
:103E880012000E012D97000E3224D96E040E332035
:103E9800DA6EDF50026E0001D007D8A0D107D0C07B
:103EA800E3F1335004E1FE0E325CD8A005D0000ED9
:103EB800336E000E326E02D0324A332A0E012D873D
:103EC800010189510F0B020AD8A407D00001D15172
:103ED80004E1E70ED05DD8A07A9402501200016E7A
:103EE8000001D451D511D8A402D0000E120001044B
:103EF800D8A408D0000E3624D96E030E3720DA6E07
:103F0800DF5012000E012D9B000E3624D96E030ED1
:103F18003720DA6EDF50026E0001D407D8A0D5072B
:103F2800D4C0E2F1375004E1FE0E365CD8A005D0CB
:103F3800000E376E000E366E02D0364A372A0E0152
:103F48002D8B010183510F0B020AD8A407D0000161
:103F5800D55104E1E70ED45DD8A07F940250120039
:103F68001D6E000E1E6E000E1F6E05D01DB01E2A9F
:103F7800D8901D321F2A070E1F64F8D71EB002D032
:103F8800010E1200000E12001D6E000E1E6E000EB5
:103F98001F6E05D01DB01E2AD8901D321F2A070E8D
:103FA8001F64F8D71EB002D0000E1200010E1200D6
:053FB800FFFFFFFFFF09
:020000040020DA
:10000000FF0FFF0FFF0FFF0FFF0FFF0FFF0FFF0F80
:020000040030CA
:0C0000008CDF3FFFEAC70FFFFFFF0FFF80
:00000001FF
